:1000000000308A00F1280000C837EC30A036753780
:10001000E4370000233084008313000803191E28EE
:100020000130F800F701F70B1328F80B12284A30BB
:10003000F700F70B19281C28800B102808000B0864
:10004000A3008B13831603178C170C1400000000F9
:1000500083120313A31B8B1703170C087F39031993
:1000600075280313A30003170D080313A400031737
:100070000F080313A50023080C1E3C289900240830
:1000800003178D000313250803178F0003130B08B4
:10009000A6008B13831603178C170C1400000000A6
:1000A00083120313A61B8B1703170C0D0E0D7F393C
:1000B000031975280313A30003170D080313A400E5
:1000C00003170F080313A50023080C1E65289900C9
:1000D000240803178D000313250803178F008D0ACA
:1000E00003198F0A03131F28031703138A110A1217
:1000F0002029AB010408AA002B10831B2B14A41F7A
:100100008928AA172A1EAA0AA309A409A30A03195F
:10011000A40A240EF038A600A607E23EA700323E4D
:10012000A90024080F39A707A707A907E93EA800D7
:10013000A807A807230E0F39A807A907A80DA90D1E
:10014000A909A90D23080F39A907A60D0730A50095
:100150000A30A907A803031CA928A807A703031CA2
:10016000AD28A707A603031CB128A607A503031CF7
:10017000B52825308400831307302A052A13840309
:100180002A05031DCA282A1A840A2A1ACA282030D6
:10019000F700E72884072930040203192A1700080A
:1001A000F700031DDB282A1BDB282A1AEB28AA19D3
:1001B000DB282030E628AA1FE3282D30F70084032F
:1001C0002A13AA13E728AA152A123030F70777084E
:1001D0000C1EE8289900840A2A1FCB288A110A12CB
:1001E000332903081F3983000C3083169900A63089
:1001F000980090308312980083161F149F141F15C7
:100200009F1107309C0083131F109F141F159F150B
:100210001F1383121F179F1783169F1783121F1414
:100220000030F8001F08C73978049F006430A3002D
:100230000A20043003178D0000308F0003131F289D
:100240001F151F19212983161E088312A1001E08DD
:10025000A2001E30A3000A20103084002208A4004F
:100260002108A3007928FA30A3000A20202963007E
:02400E00313F40
:00000001FF
;PIC16F877A
;CRC=A84F  CREATED="05-sep.-25 17:19"
